:020000040800F2
:10000000A0090020C500000891160008251100086D
:1000100000000000000000000000000000000000E0
:10002000000000000000000000000000DF160008D3
:100030000000000000000000DD160008E1160008C6
:10004000D700000800000000D7000008D700000813
:10005000D7000008D7000008D7000008D700000824
:1000600000000000D7000008D7000008D7000008F3
:10007000D7000008D7000008D700000800000000E3
:10008000251A00080000000000000000BD1700084D
:100090000000000099180008F9190008D7000008AE
:1000A00000000000D700000800000000D700000892
:1000B0000348854600F046F800480047B11B000899
:1000C000A00900200448804704480047FEE7FEE7F7
:1000D000FEE7FEE7FEE7FEE761170008B100000853
:1000E00030B50B46014600202022012409E00D46D0
:1000F000D5409D4205D31D469540491B2546954058
:1001000040191546521E002DF1DC30BD70B500249B
:100110002546002801DA01244042002901DA0125A0
:100120004942FFF7DDFFAC4200D04042002C00D036
:10013000494270BD421C0178401C0029FBD1801A45
:1001400070470000064C0125064E05E0E36807CC29
:100150002B430C3C98471034B442F7D3FFF7ACFF65
:100160005C2800087C28000870B5054608880C4605
:100170003C280AD33C21FFF7B3FF29883C22091809
:10018000298021885043081A208070BD31B500F0C5
:10019000BFF8009C0546601C00D0641C00F0B8F855
:1001A000401BA042FAD338BDF8B500238DE00124EE
:1001B0009C40A44622407DD04C68022C01D0122CD9
:1001C0000CD1DC08A40027183C6A5D07ED0E0F2651
:1001D000AE40B4430E69AE4026433E6205685E0001
:1001E0000324B4400F79A543BF07BF0FB7402F4387
:1001F00007604D68012D05D0022D03D0112D01D0CF
:10020000122D0ED18568CF68A543B7402F43876074
:1002100047686546AF430D79ED06ED0F9D403D43C0
:100220004560C568A5438C68B4402C43C4604C68E5
:10023000E40049D5284CA56901263543A561A46988
:100240009D0834400094254CAD002F19BC689D07D3
:100250002E0F0F25B540AC430925ED06A84201D16C
:1002600000250FE01E4DA84201D101250AE01D4DD9
:10027000A84201D1022505E01B4DA84201D103256A
:1002800000E00525B5402543BD60184C25684E6843
:100290009543F60300D51543256065684E68954380
:1002A000B60300D515436560A5684E689543F60210
:1002B00002D500E008E01543A560E5684E68954367
:1002C000B60200D51543E5605B1C0A681446DC40A5
:1002D00000D06CE7F8BD00000010024000000140B3
:1002E0000004004800080048000C004800040140D9
:1002F0000069084000D00120704742694A404261CD
:100300007047002A01D08161704781627047000008
:1003100001480068704700005000002070B5024698
:1003200040325378202B1CD11378012B19D0012394
:10033000137024245470046825689D432560046864
:1003400025681E03B5432560046825680D432560B4
:10035000006801681943016020205070002010706F
:1003600070BD022070BD70B5024640325378202B1C
:100370001BD11378012B18D001241470242353703F
:1003800003681D68A5431D6005682B680F263602AB
:10039000B3430902194329600068016821430160E1
:1003A000202050700020107070BD022070BD000031
:1003B00070B5040006D02546403568780026002830
:1003C00002D005E0012070BD2E70204600F0F4F848
:1003D00024206870206801684908490001600F21E5
:1003E0006068090688432168086121688A680120DD
:1003F000C00382438A60E1680129A16808D02122F4
:100400009202114322689160E168022902D005E05E
:100410000143F7E701212268C902516021684A6857
:100420000F4B1A434A602168CA688243CA606169F7
:1004300020690843A169090208432168C860216A4C
:10044000E0690843216808602068016801221143BF
:1004500001606664202068702663AE70002070BD65
:1004600000800002FFB5054604464035687883B039
:10047000202876D10C98002874D00D98002871D0CF
:10048000287801286DD001202870FFF741FF07462A
:10049000012200901923D103204600F0D7FE002846
:1004A00053D1212068704020A870002666640C9803
:1004B00060620D98608566630E980090019704A9AC
:1004C0000EC9204600F07AFE002804D0606C2E7021
:1004D00004286AD039E0608DFF2805D9FF222285E3
:1004E00001231B06009606E0608D20850096208D76
:1004F0000123C2B25B062046049900F095FE3A46FD
:1005000020460E9900F0EDFE002803D0606C042810
:100510004BD01AE0606A411C6162216800788862F1
:10052000608D401E6085208D401E0004000C2085DB
:1005300024D1608D002821D0009700228021204600
:100540000E9B00F083FE002802D0032007B0F0BD10
:10055000608DFF2807D9FF22228501231B06009604
:1005600008E024E021E0608D20850096208D0123A5
:10057000C2B25B062046049900F056FE608D00284A
:10058000BDD13A4620460E9900F084FE0028BDD128
:1005900020682021C16120684268064B1A404260F1
:1005A0006970AE702E700020D0E70120CEE70220E7
:1005B000CCE7000000E800FE00B500680F4987B0F6
:1005C000884218D10320400200901220019001209F
:1005D0000290032003900420049009206946C0067D
:1005E000FFF7E2FD0648C269012149050A43C261DD
:1005F000C0690840059007B000BD000000540040ED
:100600000010024002480168491C01607047000068
:100610005000002010B50648016810221143016007
:10062000002000F007F800F017F8002010BD0000CF
:100630000020024010B5044600F068F97D21C90091
:10064000FFF74EFD00F068FB00222146501E00F02F
:1006500029F8002010BD000008B50C48816901226E
:100660001143816180691040002200901146501FA3
:1006700000F018F800221146901E00F013F8002236
:100680001146501E00F00EF808BD00000010024098
:10069000C106C90E0120884001490860704700006A
:1006A00000E100E010B500F0F7FF10BD0A4B1A683A
:1006B0009208920002431A60084803690422134317
:1006C0000361012906D040BF20BF20BF01699143CB
:1006D0000161704730BFF9E70070004000ED00E0B5
:1006E000F8B505460068354CC00352D5E0690026D0
:1006F000C00007D4E16920040143E161E1690140E0
:10070000012600912E480168C90510D401688215A0
:1007100011430160FFF7FCFD074604E0FFF7F8FD19
:10072000C01B642824D826480068C005F6D5206A76
:1007300003273F02384020D06968394081421CD0ED
:10074000206A226AB843012109040A432262226A0C
:100750008A4322622062C0070FD0FFF7D9FD0090C4
:1007600008E0FFF7D5FD0099411A1648814201D9EA
:100770000320F8BD206A8007F3D5206A6968B84372
:1007800008432062002E04D0E16901200007814364
:10079000E1612878C00705D0206BA9688008800037
:1007A000084320632878800605D5206B10218843F4
:1007B000E968084320630020F8BD000000100240F3
:1007C000007000408813000070470000F8B505462F
:1007D00044480E460068C007C00FB0420AD24148E4
:1007E000016849084900314301600068C007C00F33
:1007F000B0425CD128783C4C800705D56068F02178
:100800008843A968084360602878C0073FD06868BB
:10081000012813D02168022813D08907002946DA5D
:1008200061688908890001436160FFF771FD6968AB
:10083000074601290DD0022917D024E02168890339
:10084000ECE78901EAE7FFF763FDC11B2748814216
:1008500017D860680007800F0128F4D117E0FFF770
:1008600057FDC11B214881420BD860680007800FEB
:100870000228F4D10BE0FFF74BFDC11B1B4881425E
:1008800001D90320F8BD60680007800FF3D1154837
:100890000168C907C90FB1420BD90168490849006D
:1008A000314301600068C007C00FB04201D0012091
:1008B000F8BD2878400706D56068072109028843FB
:1008C000E9680843606000F027F86168084A090693
:1008D000090F515CC840074908600020FFF7AAFED5
:1008E0000020F8BD002002400010024088130000E4
:1008F0009020000800000020034801680122D20473
:100900001143016070470000001002400148006878
:10091000704700000000002010B512A30FCB88B074
:100920006C460FC413A30FCB0FC416494A680C20A2
:10093000134603401448042B0FD0082B0DD193020B
:100940001B0F6C46E45CC96A04AB0907090F595CCC
:10095000D20304D5FFF7C4FB604308B010BD0B48B9
:100960006043FAE702030405060708090A0B0C0DA9
:100970000E0F10100102030405060708090A0B0CEC
:100980000D0E0F100010024000127A0000093D0009
:1009900010B5044CA068000603D5FFF715FF8020B2
:1009A000A07210BD00100240FEB504460078D04D84
:1009B000C00747D068680007800F012807D0686823
:1009C0000007800F022809D16868C00306D528688F
:1009D000800337D5606800287ED033E0012062684C
:1009E0000004012A11D08100002A01D0052A10D06C
:1009F0002A6882432A602868884328606068002843
:100A000014D0FFF785FC06460CE0296801432960F5
:100A1000F4E72A680A432A60F7E7FFF779FC801BAE
:100A200064286FD828688003F7D50BE0FFF770FCC7
:100A3000064604E0FFF76CFC801B6428F1D82868A8
:100A40008003F7D420780126800700283BDA686805
:100A50000007800F07D068680007800F022809D1BF
:100A60006868C00306D42868800715D5E0680128A7
:100A700032D111E0E0680028286815D030432860A2
:100A8000FFF746FC074604E0FFF742FCC01B0228C4
:100A9000C7D828688007F7D52868F82188432169D6
:100AA000C900084328600EE0400840002860FFF7B6
:100AB0002FFC074604E0FFF72BFCC01B0228B0D830
:100AC00028688007F7D42078000724D5E06900283B
:100AD000686A10D0304300E008E16862FFF718FC54
:100AE000074604E0FFF714FCC01B022899D8686A87
:100AF0008007F7D50FE0400840006862FFF708FC68
:100B0000074605E09DE0FFF703FCC01B022888D8DC
:100B1000686A8007F7D4207804274007002860DA45
:100B200000200190E869C00008D4E969B8060143D3
:100B3000E961E96901400120009101906D48016877
:100B4000C90511D40168821511430160FFF7E0FB6C
:100B5000009005E0FFF7DCFB0099401A642870D88C
:100B600064480068C005F5D5A06801280AD00028AF
:100B700001D0052810D0286A400840002862286A61
:100B8000B84301E0286A30432862A068002812D0E8
:100B9000FFF7BEFB00900AE0286A38432862F1E7BD
:100BA000FFF7B6FB0099411A5348814249D8286A99
:100BB0008007F5D50DE0FFF7ABFB009006E0FFF7EF
:100BC000A7FB0099411A4C4881423AD8286A80070D
:100BD000F5D40198002804D0E96901200007814379
:100BE000E9612078C00635D5606901280CD0401D28
:100BF000686B23D038436863686B400840006863C3
:100C0000FFF786FB064622E0686B38436863686B33
:100C100030436863FFF77CFB064604E0FFF778FB90
:100C2000801B02285BD8686B8007F7D5686BF821BA
:100C30008843A169C900084368630BE0B84368634F
:100C4000F4E74CE0FFF764FB801B022847D8686B91
:100C50008007F7D4206A002846D069680907890F01
:100C6000022943D0012636060228286805D0B04361
:100C70002860FFF74DFB044633E0B0432860FFF7E0
:100C800047FB074604E0FFF743FBC01B022826D8BA
:100C900028688001F7D4E86AE16A00090001084386
:100CA000E862616AA06A084369683D2212049143C0
:100CB00008436860286830432860FFF729FB044632
:100CC00004E0FFF725FB001B022808D828688001F4
:100CD000F7D509E0FFF71CFB001B022801D9032010
:100CE000FEBD28688001F5D40020FEBD0120FEBDB8
:100CF00000100240007000408813000004220449E4
:100D00000428086902D09043086170471043FBE74C
:100D100000E000E070470000094910B5401E88421D
:100D200001D9012010BD074C60610321081F00F0AC
:100D3000B3FC0020A06107202061002010BD00004E
:100D4000FFFFFF0000E000E010B5FFF7E3FF10BD7C
:100D50007047704770B502462032137F012B1BD0BD
:100D60000123137702245477046865687026B5431D
:100D70006560046865680E68354365600468A56849
:100D80008026B543A5600068846849680C43846088
:100D900053770020107770BD022070BD70B504003D
:100DA00005D025462035687F002802D006E00120C6
:100DB00070BD00202877204600F00AF802206877EE
:100DC000211D206800F078FE01206877002070BDAA
:100DD00008B51C4A01681C4891420DD1C2698115B1
:100DE0000A43C261C06900220840009011461320E6
:100DF000FFF758FC132010E0144A914210D1826989
:100E0000012149040A438261806900220840009060
:100E100011461520FFF746FC1520FFF739FC08BDE9
:100E20000B4A9142FBD18269012189040A43826104
:100E3000806900220840009011461620FFF732FC1E
:100E40001620EAE700200040001002400044014064
:100E5000004801400268D36801210B43D360006859
:100E600002680A4302600020704700000168CA68F7
:100E700052085200CA600068016A064A114207D14E
:100E8000016A9210114203D10168490849000160CA
:100E90000020704711110000F8B50D46040005D080
:100EA00026462036707F002802D006E00120F8BDDB
:100EB00000203077204600F03BF802207077206851
:100EC0008168C908C9008160211D206800F0F4FD17
:100ED000226890689369116A2F680743BC461248DC
:100EE000AF6903403F021F43A868104B3843EF69C6
:100EF00018403F020743EB6828693B432F6A000113
:100F00003F0338431843AA2399436B686D696746CA
:100F10002D010D432B43976021688861206803628F
:100F2000012070770020F8BDFCFCFFFF0303FFFFEA
:100F300000B50068114987B088421CD11048C269C9
:100F400002210A43C261C069019108400590C02096
:100F5000009001210020039002910491092069462C
:100F6000C006FFF721F9002211461020FFF79AFB77
:100F70001020FFF78DFB07B000BD0000000400400B
:100F80000010024010B504460068002911D0042961
:100F900004D00122002100F0CBFD206801220421B1
:100FA00000F0C6FD206801680122114301600020A5
:100FB00010BD01220021F3E7704770B504460068B8
:100FC00001690025C9438907002915DBC168C943A8
:100FD000890711D4E91E016101202077206880690A
:100FE0008007204602D0FFF7E7FF04E000F096F804
:100FF000204600F094F8257720680169C943490725
:1010000017D4C168C943490713D40421C9430161F6
:1010100002202077206880698005800F204602D05A
:10102000FFF7CAFF04E000F079F8204600F077F8F7
:10103000257720680169C943090716D4C168C943E7
:10104000090712D40821C9430161042020772068D0
:10105000C0698007204602D0FFF7AEFF04E000F031
:101060005DF8204600F05BF8257720680169C943E8
:10107000C90617D4C168C943C90613D41021C9438E
:101080000161082020772068C0698005800F204614
:1010900002D0FFF791FF04E000F040F8204600F096
:1010A0003EF8257720680169C943C90708D1C1689E
:1010B000C943C90704D1891E0161204600F030F8F8
:1010C00020680169C943090609D4C168C9430906F2
:1010D00005D48021C94301612046FFF739FE20680D
:1010E0000169C943490609D4C168C943490605D401
:1010F0004021C9430161204600F013F820680169CE
:10110000C943890609D4C168C943890605D4202189
:10111000C94301612046FFF71CFE70BD7047704750
:1011200070477047FEE701688A69D243920701D48D
:1011300000228A6200688169C943C90703D08169B6
:101140000122114381617047F7B5044600680E46DD
:101150008069C043C0062CD420272546403520682E
:101160008069C04380060FD5701CF8D0002E05D0D2
:10117000FFF7CEF80299401AB042F0D96F70002004
:10118000A87028700320FEBD21681020C861206867
:10119000C7612046FFF7C7FF20684168064A114033
:1011A0004160042060646F700020A87028700120E6
:1011B000FEBD0020FEBD000000E800FEF8B50446BC
:1011C0000120164640031D46DAB2C3020090079F75
:1011D000204600F029F83A462046069900F081F8AA
:1011E000002803D0606C04281BD018E02846F5B214
:1011F000012809D02168300A88623A4620460699BB
:1012000000F06FF80028EDD1206885620097002279
:1012100080212046069B00F019F8002800D003200A
:10122000F8BD0120F8BD000070B50568049C686831
:101230008905890D1204044E11431943304021439E
:101240000143696070BD0000009800FCF8B51C46C1
:1012500017460E46054611E0601C0FD0002C05D045
:10126000FFF756F80699401AA04207D920204035CA
:1012700068700020A87028700320F8BD2868816974
:101280003046884304D00020B842E5D00020F8BDA5
:101290000120F9E770B516460D4604461AE03246BD
:1012A00029462046FFF750FF002801D0012070BDDD
:1012B000002D04D0FFF72CF8801BA8420AD9616CDE
:1012C000202001436164403460700020A0702070D1
:1012D000032070BD20688069C0438006DFD40020F1
:1012E00070BD70B516460D4604461CE032462946D0
:1012F0002046FFF729FF002801D0012070BD681C9F
:1013000011D0002D04D0FFF703F8801BA8420AD9A2
:10131000616C202001436164403460700020A07043
:101320002070032070BD20688069C0438007DDD431
:10133000002070BD30B5174887B04269012189058A
:101340000A43426142690A400592426949110A43CF
:1013500042614069104C08400925ED0605900022C5
:1013600021462846FEF7CDFF00940120002401907D
:101370000294694628460394FEF716FF2020009049
:1013800002200290019469462846FEF70DFF07B03F
:1013900030BD0000001002400318000010B51248D4
:1013A0001049016011494160002181600161416182
:1013B00081610122C161C2600162FEF7F9FF00286C
:1013C00000D0FEE700210848FEF7A8FF002800D063
:1013D000FEE700210448FEF7C6FF002800D0FEE724
:1013E00010BD000000540040540000200E090020F1
:1013F00010B5134913488CB0002412C004608460F7
:10140000032104614160009101200F2101940394A4
:101410000290049108910690059407946946094842
:10142000FFF73AFD002800D0FEE7099409A9054816
:101430000A94FFF78FFC002800D0FEE70CB010BD27
:1014400000040040A0000020F8B5874C874D2078AC
:101450002746283706287DD007287BD000260A207B
:101460007043C1B2002000F079FD6078B04205D130
:1014700006CD01237EA0083D00F0F4FD06CDB000AE
:1014800038580123083D00F0EDFD002E04D0012E58
:101490002CD0022E61D136E00021312000F05EFD1B
:1014A0007149E088203100F06AFB6F4806CD0123C6
:1014B0002030083D00F0D6FD06CD01236DA0083D8B
:1014C00000F0D0FD68492089203100F058FB6648C3
:1014D00006CD01232030083D00F0C4FD06CD0123D8
:1014E00065A0083D00F0BEFD0126B8E70A213120C5
:1014F00000F034FD5C496089203100F040FB5A481F
:101500000123203023E01421312000F027FD56492B
:10151000A089203100F033FB534806CD0123203051
:10152000083D00F09FFD06CD012352A0083D00F0CC
:1015300099FD4D49E089203100F021FB4A4806CD54
:1015400001232030083D00F08DFD01234AA006CD87
:10155000083D00E005E000F085FD761C042EC4DBAC
:101560007FE000260A207043C1B2002000F0F6FCA4
:1015700006CDB00038580123083D00F073FD002E61
:1015800004D0012E2CD0022E5FD136E00021312074
:1015900000F0E4FC3449208A203100F0F0FA3248AF
:1015A00006CD01232030083D00F05CFD06CD01236F
:1015B00030A0083D00F056FD2B49608A203100F034
:1015C000DEFA294806CD01232030083D00F04AFD0F
:1015D00006CD012328A0083D00F044FD0126C1E707
:1015E0000A21312000F0BAFC1F49A08A203100F006
:1015F000C6FA1D480123203023E01421312000F0D9
:10160000ADFC1949E08A203100F0B9FA164806CD40
:1016100001232030083D00F025FD06CD012315A053
:10162000083D00F01FFD1049208B203100F0A7FA83
:101630000D4806CD01232030083D00F013FD0123A5
:101640000DA006CD083D00F00DFD761C032E89DBB4
:101650002821002000F082FC06CD012307A000F025
:1016600001FD00F081FCF8BD0400002040000020D6
:101670002D3E00006020200060600000202020201F
:101680002052756E6E696E67202020202020000099
:1016900010B5FFF77DF910BD8307FF22DB0E9A40DE
:1016A0008907090E994000280BDA0007000F083857
:1016B000830808489B001818C36993430B43C36110
:1016C0007047830804489B001B1818689043084320
:1016D0001860704700ED00E000E400E070477047DC
:1016E00010B5FEF78FFFFFF72FFB10BD30B595B09B
:1016F000092001250024009001950795089468466B
:10170000FFF752F9002800D0FEE707200C900E9456
:1017100000210D950F940CA8FFF758F8002800D071
:10172000FEE7202010901020139010A8FEF7D8FF9D
:10173000002800D0FEE7FFF7DFF8FFF7E7F87D218C
:10174000C900FEF7CDFCFFF7E7FA0420FFF7D6FA51
:1017500000221146501EFEF7A5FF15B030BD000057
:10176000134801680122114301604168114A114088
:1017700041600168104A1140016001680122920431
:101780009143016041683F22120491434160C16A64
:1017900009090901C162016BFF22143291430163FF
:1017A000416B490849004163002181607047000096
:1017B000001002400CB8FF08FFFFF6FEF8B52A48FB
:1017C000FFF7FBFB09240121E40609032046FEF78D
:1017D00094FD264E3B2730782549264A062808D016
:1017E000072805D1244B188800281CD0401E1880DB
:1017F000F8BD0888002802D0401E0880F8BD108877
:10180000002803D0401E10800F80F8BD1B49012422
:1018100008881B4D002804D0401E08801248FFF79E
:1018200025FB2C70F8BD17480588002D03D06D1ED0
:1018300005801F80F8BD144D2D881580134A12882D
:101840000A80134901220988018012480221008878
:101850001880062030702046FEF753FD0122114605
:101860002046FEF74EFDF8BDE000002004000020F9
:1018700016000020140000201C000020180000208A
:10188000070000201A0000200A0000200C000020A1
:101890001000002012000020F8B54548FFF78DFB2E
:1018A0000926F60620213046FEF722FD0024414994
:1018B00000287BD04048414D04602A7801274048E9
:1018C000130000F040F908053E404345474C4C36B4
:1018D0003C49097800292DD001292DD002292DD08D
:1018E000032926D106212970077037483749008817
:1018F00008803748374900880880374837490088CA
:1019000008803748374900880880374837490088B9
:1019100008803748006844623548FFF79BFA012287
:1019200002213046FEF7EDFC012211463046FEF75B
:10193000E8FCF8BD2F70F8BD032000E004202870FB
:10194000F8BD0220FBE722491F4805E02C70F8BDD6
:101950000520F4E724492248FEF706FCF6E70A785A
:10196000052A20D92C700770002201213046FEF78D
:10197000C8FC002202213046FEF7C3FC1C48FFF7DA
:1019800075FA1B48006844620121002209033046B1
:10199000FEF7B7FC002000F067FA00F0E5FA154802
:1019A0000770F8BD02E0521C0A70FAE70C70F8E705
:1019B000200100203C000020200000200400002026
:1019C00006000020050000200A000020140000206E
:1019D0000C000020160000200E000020180000203F
:1019E000100000201A000020120000201C0000201F
:1019F000E00000200800002010B50748FFF7DDFADE
:101A000006480078062805D0072803D00448016856
:101A1000491C016010BD000060010020040000208E
:101A20002000002010B51B48FFF7C7FA1A48002213
:101A300002601848006800681849C0060978C00F9D
:101A40000B0000F080F8060415191F21230C14491F
:101A50000028087806D0002802D0401E087010BD6B
:101A60000320FBE7032801D0401CF7E70A7010BDF4
:101A70000C4902E0088010BD0B490028088807D0F7
:101A8000401EF7E70949F8E70949F6E70949F4E78D
:101A9000401CEFE7A00000202000002004000020F0
:101AA000050000200A0000200C0000200E0000208D
:101AB000100000201200002070B50268174B184E6D
:101AC000984201D0B04203D17024A2434C68224313
:101AD000144C154D984208D0B04206D0134EB04277
:101AE00003D0A04201D0A84204D103263602B2435B
:101AF000CE6832438026B2434E69324302608A6820
:101B0000C2620A688262984203D0A04201D0A84211
:101B100001D1096901630121416170BD002C0140BF
:101B20000004004000440140004801400020004003
:101B300010B50123046A8B409C430462036A8A4007
:101B40001343036210BD30B47446641E2578641CD0
:101B5000AB4200D21D46635D5B00E31830BC184702
:101B600002E008C8121F08C1002AFAD17047704766
:101B7000002001E001C1121F002AFBD1704770B59F
:101B80000D46061E00DA704200240A21FEF7BEFA56
:101B900030312955641C0028F7DC002E02DA2D2094
:101BA0002855641C00202855284600F02BF970BDEC
:101BB00086B0FEF72FFDFFF799FDFFF7BBFBFFF7A0
:101BC000EDFBFFF715FC8548002585607D24056148
:101BD0008149E4008561824EC46042C00838FFF745
:101BE000DDF8002800D0FEE77C487E4940300160E7
:101BF0007D4985604160056145617C498561C160C1
:101C0000FFF7CCF8002800D0FEE774487849803010
:101C1000856042C085607D21C560C9000561416065
:101C20000838FFF7BBF8002800D0FEE76B48182102
:101C30004038FFF7A7F9002211461020FEF732FDC9
:101C40001020FEF725FD65484038FFF703F963488B
:101C5000FFF700F96148FFF709F960484030FFF7E6
:101C6000F9F85E488030FFF7F5F8012109200022DD
:101C70000903C006FEF745FB00F008F95D4C5E4E17
:101C8000657070680007800F01284BD00022012189
:101C90000920C902C006FEF734FBA078002805D051
:101CA000002000F0E1F800F05FF9A570E0690A2873
:101CB00030D9AE20E56100F0C3F950480190022010
:101CC000029020270920009769460395C006FEF779
:101CD0006BFA002211460720FEF7E4FC0720FEF70E
:101CE000D7FC092000224649C006FEF70AFB022164
:101CF0000120FEF7DBFCFFF7F9FCAF2000F0A0F9B4
:101D0000022002900920694600970195C006FEF75F
:101D10004BFA2570FFF798FB2078062804D0072897
:101D200002D046E00122B2E7E078002841D009273E
:101D3000FF06002201213846FEF7E3FA00220221C5
:101D40003846FEF7DEFA2548FFF790F8FF20F53019
:101D5000FEF71CFA214F386845623846FFF77AF8DB
:101D6000E570A08A002811D0A089E082E089208354
:101D7000E0882082208960820720207001210920CC
:101D800000220903C006FEF7BCFA12E01348FFF771
:101D90006DF8386845620121092000220903C00658
:101DA000FEF7AFFAE088208220896082257001204A
:101DB000A0702079002800D163E708484030FFF781
:101DC00055F87D20C000FEF7E1F904482571403048
:101DD000FFF740F855E7000000200040E000002039
:101DE0003F1F0000004401401F0300008C0A000058
:101DF00000480140040000200010024000003210A2
:101E00000318000070B505460024FEF793F9401E44
:101E100005E0295D2A5C2A552954401E641C844231
:101E2000F7DB70BD70B5802815D2402913D24D075D
:101E300001246D0F0A4BAC40C9081E79C901094B3A
:101E40000818002E02D0002A06D001E0012A03D093
:101E5000195CA143195470BD195C2143FAE70000D5
:101E600048000020A001002010B50021064B0122EF
:101E70009202002805D0FF245C54491C9142F8D3FB
:101E800010BD0024F8E70000A001002010B5642078
:101E9000FEF77CF9AE2000F0D3F8202000F0D0F857
:101EA000102000F0CDF8B02000F0CAF8C82000F0F3
:101EB000C7F8002000F0C4F8102000F0C1F840205E
:101EC00000F0BEF8812000F0BBF8FF2000F0B8F869
:101ED000A12000F0B5F8A62000F0B2F8A82000F08C
:101EE000AFF83F2000F0ACF8A42000F0A9F8D32010
:101EF00000F0A6F8002000F0A3F8D52000F0A0F82C
:101F0000F02000F09DF8D92000F09AF8222000F08F
:101F100097F8DA2000F094F8122000F091F8DB2016
:101F200000F08EF8202000F08BF88D2000F088F86B
:101F3000142000F085F8AF2000F082F80020FFF7B1
:101F400093FF00F011F80448002101804180012135
:101F50004171084610BD000048000020014A108071
:101F60005180704748000020FEB5002464250E4FC4
:101F700080262046B030C0B200F062F8002000F0A9
:101F80005FF8102000F05CF8E001C0190090012318
:101F900040227821019602950448FEF763FA641CFA
:101FA000E4B2082CE5D3FEBDA001002054000020BF
:101FB000FFB581B021486A460188177AC91980297E
:101FC00004D24088567A8019402802D3002005B0F8
:101FD000F0BD002528E001993046203948434019DA
:101FE0004000039A0024105A00901AE00098A04084
:101FF000000408D51148049A81780078491900191D
:10200000C9B2C0B20AE00498002815D000220B48DB
:102010008178007849190019C9B2C0B2FFF702FFF0
:10202000641CA742E2D86D1CAE42D4D80348018894
:10203000C91901800198CAE70122E8E74800002099
:1020400001B584B001210A2204A80B460292019135
:102050000090002278210248FEF704FA05B000BD86
:1020600054000020F0B51D460E46174604460AE00F
:102070002B463A463146FFF79BFF2178884201D034
:10208000C8B2F0BD641C20780028F1D1C0B2F0BD08
:102090000000000000000000010203040607080918
:1020A0000000000000000000000000000000000030
:1020B00000000000001000100010001000100010C0
:1020C0000000001000000000002800280028000088
:1020D00000000000000000000000000000240024B8
:1020E000007C00240048007C0048004800000000FC
:1020F00000380054005000380014005400540038D8
:102100000010000000200054005800300028005447
:102110000014000800000000001000280028001033
:102120000034004800480034000000000010001097
:10213000001000000000000000000000000000008F
:1021400000080010002000200020002000200020B7
:102150000010000800200010000800080008000817
:1021600000080008001000200010003800100028AF
:10217000000000000000000000000000000000005F
:1021800000100010007C0010001000000000000093
:10219000000000000000000000000000000000102F
:1021A00000100010000000000000000000000038D7
:1021B000000000000000000000000000000000001F
:1021C00000000000000000100000000000080008EF
:1021D000001000100010001000200020000000007F
:1021E00000380044004400540044004400440038D7
:1021F000000000000010003000500010001000101F
:1022000000100010000000000038004400440004EA
:10221000000800100020007C00000000003800448E
:10222000000400180004000400440038000000000E
:1022300000080018002800280048007C000800085A
:1022400000000000007C0040004000780004000412
:1022500000440038000000000038004400400078CE
:10226000004400440044003800000000007C0004EA
:1022700000080010001000200020002000000000D6
:102280000038004400440038004400440044003852
:10229000000000000038004400440044003C0004FA
:1022A00000440038000000000000000000100000A2
:1022B000000000000000001000000000000000000E
:1022C00000000010000000000000001000100010CE
:1022D00000000000000C003000400030000C000046
:1022E00000000000000000000000007C0000007CF6
:1022F0000000000000000000000000000060001866
:1023000000040018006000000000000000380044D5
:102310000004000800100010000000100000000081
:1023200000380044004C0054005C0040004000387D
:102330000000000000100028002800280028007C71
:10234000004400440000000000780044004400788D
:1023500000440044004400780000000000380044BD
:1023600000400040004000400044003800000000F1
:1023700000700048004400440044004400480070DD
:1023800000000000007C00400040007C0040004055
:102390000040007C00000000007C0040004000780D
:1023A00000400040004000400000000000380044B1
:1023B00000400040005C0044004400380000000081
:1023C000004400440044007C0044004400440044B5
:1023D0000000000000380010001000100010001075
:1023E0000010003800000000000400040004000495
:1023F00000040004004400380000000000440048CD
:1024000000500060005000480048004400000000F8
:102410000040004000400040004000400040007C80
:10242000000000000044006C006C005400440044B4
:1024300000440044000000000044006400640054B4
:102440000054004C004C00440000000000380044E0
:1024500000440044004400440044003800000000F0
:1024600000780044004400440078004000400040F0
:1024700000000000003800440044004400440044D0
:102480000054003800040000007800440044004478
:102490000078004800480044000000000038004474
:1024A0000040003000080004004400380000000034
:1024B000007C001000100010001000100010001030
:1024C0000000000000440044004400440044004474
:1024D000004400380000000000440044004400288C
:1024E00000280028001000100000000000440044F4
:1024F000005400540054006C002800280000000024
:102500000044002800280010001000280028004483
:1025100000000000004400440028002800100010C3
:102520000010001000000000007C000400080010F3
:10253000001000200040007C000000000018001087
:102540000010001000100010001000100010001803
:1025500000200020001000100010001000080008EB
:1025600000000000003000100010001000100010EB
:102570000010001000100030001000280028004457
:10258000000000000000000000000000000000004B
:10259000000000000000000000000000000000FE3D
:1025A00000200010000000000000000000000000FB
:1025B000000000000000000000380044003C00441F
:1025C000004C00340000000000400040005800644F
:1025D00000440044006400580000000000000000B7
:1025E0000038004400400040004400380000000073
:1025F000000400040034004C00440044004C00344B
:10260000000000000000000000380044007C004092
:102610000044003800000000000C0010007C001096
:10262000001000100010001000000000000000006A
:102630000034004C00440044004C00340004007896
:10264000004000400058006400440044004400443E
:1026500000000000001000000070001000100010CA
:1026600000100010000000000010000000700010BA
:102670000010001000100010001000E000400040AA
:102680000048005000600050004800440000000076
:10269000007000100010001000100010001000105A
:1026A00000000000000000000078005400540054B6
:1026B00000540054000000000000000000580064B6
:1026C00000440044004400440000000000000000FA
:1026D000003800440044004400440038000000007A
:1026E00000000000005800640044004400640058EA
:1026F00000400040000000000034004C0044004452
:10270000004C003400040004000000000058006485
:1027100000400040004000400000000000000000B9
:102720000038004400300008004400380000000079
:102730000020002000780020002000200020001849
:102740000000000000000000004400440044004479
:10275000004C003400000000000000000044004471
:1027600000280028002800100000000000000000E1
:10277000005400540054006C0028002800000000A1
:102780000000000000440028001000100028004451
:102790000000000000000000004400440028002861
:1027A000001000100010006000000000007C000815
:1027B000001000200040007C000000000018001005
:1027C0000010001000200020001000100010001861
:1027D0000010001000100010001000100010001079
:1027E0000010001000300010001000100008000859
:1027F0000010001000100030000000000000007405
:10280000004C000000000000000000004E756D3A12
:1028100020202020202020202020202020202000D8
:102820004578703A202020202020202020202020C1
:1028300020202000496E743A2020202020202020D3
:10284000202020202020200053746172742020203A
:102850002020202020202020202020007C2800086C
:102860000000002054000000601B0008D028000871
:10287000540000204C090000701B000800127A0070
:10288000000000000000000003000300000005003D
:102890000000000000000000000000000000000038
:1028A0000000000000000000202800080C2800089C
:1028B000342800084828000800000000070A00002B
:1028C000A020000800000000000000000000000040
:04000005080000B13E
:00000001FF
